{
	"data": {
		"bytecode": {
			"linkReferences": {},
			"object": "6080604052600080553480156200001557600080fd5b50604051620010d9380380620010d983398181016040528101906200003b9190620000ed565b80600260006101000a81548173ffffffffffffffffffffffffffffffffffffffff021916908373ffffffffffffffffffffffffffffffffffffffff160217905550506200011f565b600080fd5b600073ffffffffffffffffffffffffffffffffffffffff82169050919050565b6000620000b58262000088565b9050919050565b620000c781620000a8565b8114620000d357600080fd5b50565b600081519050620000e781620000bc565b92915050565b60006020828403121562000106576200010562000083565b5b60006200011684828501620000d6565b91505092915050565b610faa806200012f6000396000f3fe608060405234801561001057600080fd5b506004361061005b5760003560e01c806335a271781461009a578063466a0146146100a4578063c375110d146100d4578063cd8cb137146100f0578063f531072c1461010e5761005c565b5b7fa46ff6f8d8019b1a730a7666fa32a0236c89399dd776007c7485144b71e9e27933600036604051610090939291906109a7565b60405180910390a1005b6100a261012a565b005b6100be60048036038101906100b99190610a1d565b610373565b6040516100cb9190610a65565b60405180910390f35b6100ee60048036038101906100e99190610a1d565b61052b565b005b6100f86106a5565b6040516101059190610a99565b60405180910390f35b61012860048036038101906101239190610a1d565b6106ae565b005b600073ffffffffffffffffffffffffffffffffffffffff16600160003373ffffffffffffffffffffffffffffffffffffffff1673ffffffffffffffffffffffffffffffffffffffff16815260200190815260200160002060009054906101000a900473ffffffffffffffffffffffffffffffffffffffff1673ffffffffffffffffffffffffffffffffffffffff16146101f8576040517f08c379a00000000000000000000000000000000000000000000000000000000081526004016101ef90610b00565b60405180910390fd5b6000610225600260009054906101000a900473ffffffffffffffffffffffffffffffffffffffff166107f1565b90508073ffffffffffffffffffffffffffffffffffffffff16634420e486336040518263ffffffff1660e01b81526004016102609190610b20565b600060405180830381600087803b15801561027a57600080fd5b505af115801561028e573d6000803e3d6000fd5b5050505080600160003373ffffffffffffffffffffffffffffffffffffffff1673ffffffffffffffffffffffffffffffffffffffff16815260200190815260200160002060006101000a81548173ffffffffffffffffffffffffffffffffffffffff021916908373ffffffffffffffffffffffffffffffffffffffff16021790555060008081548092919061032290610b6a565b91905055507f85858416f612212ddb7c6344d7b58182bad1de3be71438a88c6f19f0fa2b826d3360016000546103589190610bb2565b8360405161036893929190610c32565b60405180910390a150565b600081600073ffffffffffffffffffffffffffffffffffffffff16600160008373ffffffffffffffffffffffffffffffffffffffff1673ffffffffffffffffffffffffffffffffffffffff16815260200190815260200160002060009054906101000a900473ffffffffffffffffffffffffffffffffffffffff1673ffffffffffffffffffffffffffffffffffffffff1603610444576040517f08c379a000000000000000000000000000000000000000000000000000000000815260040161043b90610cee565b60405180910390fd5b6000600160008573ffffffffffffffffffffffffffffffffffffffff1673ffffffffffffffffffffffffffffffffffffffff16815260200190815260200160002060009054906101000a900473ffffffffffffffffffffffffffffffffffffffff1690508073ffffffffffffffffffffffffffffffffffffffff1663a8f2be76336040518263ffffffff1660e01b81526004016104e19190610b20565b602060405180830381865afa1580156104fe573d6000803e3d6000fd5b505050506040513d601f19601f820116820180604052508101906105229190610d3a565b92505050919050565b8073ffffffffffffffffffffffffffffffffffffffff163373ffffffffffffffffffffffffffffffffffffffff1603610599576040517f08c379a000000000000000000000000000000000000000000000000000000000815260040161059090610db3565b60405180910390fd5b6000600160003373ffffffffffffffffffffffffffffffffffffffff1673ffffffffffffffffffffffffffffffffffffffff16815260200190815260200160002060009054906101000a900473ffffffffffffffffffffffffffffffffffffffff1690508073ffffffffffffffffffffffffffffffffffffffff1663ac0cc46533846040518363ffffffff1660e01b8152600401610638929190610dd3565b600060405180830381600087803b15801561065257600080fd5b505af1158015610666573d6000803e3d6000fd5b505050507fcf135c3b898e1e68301ee3615d92cb56b00c3fc03db5a8b44fea7363b96e0dae826040516106999190610e48565b60405180910390a15050565b60008054905090565b8073ffffffffffffffffffffffffffffffffffffffff163373ffffffffffffffffffffffffffffffffffffffff160361071c576040517f08c379a000000000000000000000000000000000000000000000000000000000815260040161071390610ee8565b60405180910390fd5b6000600160003373ffffffffffffffffffffffffffffffffffffffff1673ffffffffffffffffffffffffffffffffffffffff16815260200190815260200160002060009054906101000a900473ffffffffffffffffffffffffffffffffffffffff1690508073ffffffffffffffffffffffffffffffffffffffff16634cc2f08133846040518363ffffffff1660e01b81526004016107bb929190610dd3565b600060405180830381600087803b1580156107d557600080fd5b505af11580156107e9573d6000803e3d6000fd5b505050505050565b6000763d602d80600a3d3981f3363d3d373d3d3d363d730000008260601b60e81c176000526e5af43d82803e903d91602b57fd5bf38260781b17602052603760096000f09050600073ffffffffffffffffffffffffffffffffffffffff168173ffffffffffffffffffffffffffffffffffffffff16036108a6576040517f08c379a000000000000000000000000000000000000000000000000000000000815260040161089d90610f54565b60405180910390fd5b919050565b600082825260208201905092915050565b7f66616c6c6261636b000000000000000000000000000000000000000000000000600082015250565b60006108f26008836108ab565b91506108fd826108bc565b602082019050919050565b600073ffffffffffffffffffffffffffffffffffffffff82169050919050565b600061093382610908565b9050919050565b61094381610928565b82525050565b600082825260208201905092915050565b82818337600083830152505050565b6000601f19601f8301169050919050565b60006109868385610949565b935061099383858461095a565b61099c83610969565b840190509392505050565b600060608201905081810360008301526109c0816108e5565b90506109cf602083018661093a565b81810360408301526109e281848661097a565b9050949350505050565b600080fd5b6109fa81610928565b8114610a0557600080fd5b50565b600081359050610a17816109f1565b92915050565b600060208284031215610a3357610a326109ec565b5b6000610a4184828501610a08565b91505092915050565b60008115159050919050565b610a5f81610a4a565b82525050565b6000602082019050610a7a6000830184610a56565b92915050565b6000819050919050565b610a9381610a80565b82525050565b6000602082019050610aae6000830184610a8a565b92915050565b7f596f752077657265207265676973746572210000000000000000000000000000600082015250565b6000610aea6012836108ab565b9150610af582610ab4565b602082019050919050565b60006020820190508181036000830152610b1981610add565b9050919050565b6000602082019050610b35600083018461093a565b92915050565b7f4e487b7100000000000000000000000000000000000000000000000000000000600052601160045260246000fd5b6000610b7582610a80565b91507fffffffffffffffffffffffffffffffffffffffffffffffffffffffffffffffff8203610ba757610ba6610b3b565b5b600182019050919050565b6000610bbd82610a80565b9150610bc883610a80565b9250828203905081811115610be057610bdf610b3b565b5b92915050565b7f4372656174652070617469656e743a2000000000000000000000000000000000600082015250565b6000610c1c6010836108ab565b9150610c2782610be6565b602082019050919050565b60006080820190508181036000830152610c4b81610c0f565b9050610c5a602083018661093a565b610c676040830185610a8a565b610c74606083018461093a565b949350505050565b7f50617469656e7420646f6e27742065786973747321436865636b20706174696560008201527f6e742773206163636f756e742100000000000000000000000000000000000000602082015250565b6000610cd8602d836108ab565b9150610ce382610c7c565b604082019050919050565b60006020820190508181036000830152610d0781610ccb565b9050919050565b610d1781610a4a565b8114610d2257600080fd5b50565b600081519050610d3481610d0e565b92915050565b600060208284031215610d5057610d4f6109ec565b5b6000610d5e84828501610d25565b91505092915050565b7f596f752063616e206e6f74206265206120646f63746f72210000000000000000600082015250565b6000610d9d6018836108ab565b9150610da882610d67565b602082019050919050565b60006020820190508181036000830152610dcc81610d90565b9050919050565b6000604082019050610de8600083018561093a565b610df5602083018461093a565b9392505050565b7f446f63746f720000000000000000000000000000000000000000000000000000600082015250565b6000610e326006836108ab565b9150610e3d82610dfc565b602082019050919050565b60006040820190508181036000830152610e6181610e25565b9050610e70602083018461093a565b92915050565b7f596f752063616e206e6f74206265206120646f63746f7220616e64206e6f746860008201527f696e6720616e75616c2100000000000000000000000000000000000000000000602082015250565b6000610ed2602a836108ab565b9150610edd82610e76565b604082019050919050565b60006020820190508181036000830152610f0181610ec5565b9050919050565b7f455243313136373a20637265617465206661696c656400000000000000000000600082015250565b6000610f3e6016836108ab565b9150610f4982610f08565b602082019050919050565b60006020820190508181036000830152610f6d81610f31565b905091905056fea264697066735822122015bf605286accfeb566a2ad52e5dcebd25ae1c57b2dac129426d21255f535b7664736f6c63430008120033",
			"opcodes": "PUSH1 0x80 PUSH1 0x40 MSTORE PUSH1 0x0 DUP1 SSTORE CALLVALUE DUP1 ISZERO PUSH3 0x15 JUMPI PUSH1 0x0 DUP1 REVERT JUMPDEST POP PUSH1 0x40 MLOAD PUSH3 0x10D9 CODESIZE SUB DUP1 PUSH3 0x10D9 DUP4 CODECOPY DUP2 DUP2 ADD PUSH1 0x40 MSTORE DUP2 ADD SWAP1 PUSH3 0x3B SWAP2 SWAP1 PUSH3 0xED JUMP JUMPDEST DUP1 PUSH1 0x2 PUSH1 0x0 PUSH2 0x100 EXP DUP2 SLOAD DUP2 PUSH20 0xFFFFFFFFFFFFFFFFFFFFFFFFFFFFFFFFFFFFFFFF MUL NOT AND SWAP1 DUP4 PUSH20 0xFFFFFFFFFFFFFFFFFFFFFFFFFFFFFFFFFFFFFFFF AND MUL OR SWAP1 SSTORE POP POP PUSH3 0x11F JUMP JUMPDEST PUSH1 0x0 DUP1 REVERT JUMPDEST PUSH1 0x0 PUSH20 0xFFFFFFFFFFFFFFFFFFFFFFFFFFFFFFFFFFFFFFFF DUP3 AND SWAP1 POP SWAP2 SWAP1 POP JUMP JUMPDEST PUSH1 0x0 PUSH3 0xB5 DUP3 PUSH3 0x88 JUMP JUMPDEST SWAP1 POP SWAP2 SWAP1 POP JUMP JUMPDEST PUSH3 0xC7 DUP2 PUSH3 0xA8 JUMP JUMPDEST DUP2 EQ PUSH3 0xD3 JUMPI PUSH1 0x0 DUP1 REVERT JUMPDEST POP JUMP JUMPDEST PUSH1 0x0 DUP2 MLOAD SWAP1 POP PUSH3 0xE7 DUP2 PUSH3 0xBC JUMP JUMPDEST SWAP3 SWAP2 POP POP JUMP JUMPDEST PUSH1 0x0 PUSH1 0x20 DUP3 DUP5 SUB SLT ISZERO PUSH3 0x106 JUMPI PUSH3 0x105 PUSH3 0x83 JUMP JUMPDEST JUMPDEST PUSH1 0x0 PUSH3 0x116 DUP5 DUP3 DUP6 ADD PUSH3 0xD6 JUMP JUMPDEST SWAP2 POP POP SWAP3 SWAP2 POP POP JUMP JUMPDEST PUSH2 0xFAA DUP1 PUSH3 0x12F PUSH1 0x0 CODECOPY PUSH1 0x0 RETURN INVALID PUSH1 0x80 PUSH1 0x40 MSTORE CALLVALUE DUP1 ISZERO PUSH2 0x10 JUMPI PUSH1 0x0 DUP1 REVERT JUMPDEST POP PUSH1 0x4 CALLDATASIZE LT PUSH2 0x5B JUMPI PUSH1 0x0 CALLDATALOAD PUSH1 0xE0 SHR DUP1 PUSH4 0x35A27178 EQ PUSH2 0x9A JUMPI DUP1 PUSH4 0x466A0146 EQ PUSH2 0xA4 JUMPI DUP1 PUSH4 0xC375110D EQ PUSH2 0xD4 JUMPI DUP1 PUSH4 0xCD8CB137 EQ PUSH2 0xF0 JUMPI DUP1 PUSH4 0xF531072C EQ PUSH2 0x10E JUMPI PUSH2 0x5C JUMP JUMPDEST JUMPDEST PUSH32 0xA46FF6F8D8019B1A730A7666FA32A0236C89399DD776007C7485144B71E9E279 CALLER PUSH1 0x0 CALLDATASIZE PUSH1 0x40 MLOAD PUSH2 0x90 SWAP4 SWAP3 SWAP2 SWAP1 PUSH2 0x9A7 JUMP JUMPDEST PUSH1 0x40 MLOAD DUP1 SWAP2 SUB SWAP1 LOG1 STOP JUMPDEST PUSH2 0xA2 PUSH2 0x12A JUMP JUMPDEST STOP JUMPDEST PUSH2 0xBE PUSH1 0x4 DUP1 CALLDATASIZE SUB DUP2 ADD SWAP1 PUSH2 0xB9 SWAP2 SWAP1 PUSH2 0xA1D JUMP JUMPDEST PUSH2 0x373 JUMP JUMPDEST PUSH1 0x40 MLOAD PUSH2 0xCB SWAP2 SWAP1 PUSH2 0xA65 JUMP JUMPDEST PUSH1 0x40 MLOAD DUP1 SWAP2 SUB SWAP1 RETURN JUMPDEST PUSH2 0xEE PUSH1 0x4 DUP1 CALLDATASIZE SUB DUP2 ADD SWAP1 PUSH2 0xE9 SWAP2 SWAP1 PUSH2 0xA1D JUMP JUMPDEST PUSH2 0x52B JUMP JUMPDEST STOP JUMPDEST PUSH2 0xF8 PUSH2 0x6A5 JUMP JUMPDEST PUSH1 0x40 MLOAD PUSH2 0x105 SWAP2 SWAP1 PUSH2 0xA99 JUMP JUMPDEST PUSH1 0x40 MLOAD DUP1 SWAP2 SUB SWAP1 RETURN JUMPDEST PUSH2 0x128 PUSH1 0x4 DUP1 CALLDATASIZE SUB DUP2 ADD SWAP1 PUSH2 0x123 SWAP2 SWAP1 PUSH2 0xA1D JUMP JUMPDEST PUSH2 0x6AE JUMP JUMPDEST STOP JUMPDEST PUSH1 0x0 PUSH20 0xFFFFFFFFFFFFFFFFFFFFFFFFFFFFFFFFFFFFFFFF AND PUSH1 0x1 PUSH1 0x0 CALLER PUSH20 0xFFFFFFFFFFFFFFFFFFFFFFFFFFFFFFFFFFFFFFFF AND PUSH20 0xFFFFFFFFFFFFFFFFFFFFFFFFFFFFFFFFFFFFFFFF AND DUP2 MSTORE PUSH1 0x20 ADD SWAP1 DUP2 MSTORE PUSH1 0x20 ADD PUSH1 0x0 KECCAK256 PUSH1 0x0 SWAP1 SLOAD SWAP1 PUSH2 0x100 EXP SWAP1 DIV PUSH20 0xFFFFFFFFFFFFFFFFFFFFFFFFFFFFFFFFFFFFFFFF AND PUSH20 0xFFFFFFFFFFFFFFFFFFFFFFFFFFFFFFFFFFFFFFFF AND EQ PUSH2 0x1F8 JUMPI PUSH1 0x40 MLOAD PUSH32 0x8C379A000000000000000000000000000000000000000000000000000000000 DUP2 MSTORE PUSH1 0x4 ADD PUSH2 0x1EF SWAP1 PUSH2 0xB00 JUMP JUMPDEST PUSH1 0x40 MLOAD DUP1 SWAP2 SUB SWAP1 REVERT JUMPDEST PUSH1 0x0 PUSH2 0x225 PUSH1 0x2 PUSH1 0x0 SWAP1 SLOAD SWAP1 PUSH2 0x100 EXP SWAP1 DIV PUSH20 0xFFFFFFFFFFFFFFFFFFFFFFFFFFFFFFFFFFFFFFFF AND PUSH2 0x7F1 JUMP JUMPDEST SWAP1 POP DUP1 PUSH20 0xFFFFFFFFFFFFFFFFFFFFFFFFFFFFFFFFFFFFFFFF AND PUSH4 0x4420E486 CALLER PUSH1 0x40 MLOAD DUP3 PUSH4 0xFFFFFFFF AND PUSH1 0xE0 SHL DUP2 MSTORE PUSH1 0x4 ADD PUSH2 0x260 SWAP2 SWAP1 PUSH2 0xB20 JUMP JUMPDEST PUSH1 0x0 PUSH1 0x40 MLOAD DUP1 DUP4 SUB DUP2 PUSH1 0x0 DUP8 DUP1 EXTCODESIZE ISZERO DUP1 ISZERO PUSH2 0x27A JUMPI PUSH1 0x0 DUP1 REVERT JUMPDEST POP GAS CALL ISZERO DUP1 ISZERO PUSH2 0x28E JUMPI RETURNDATASIZE PUSH1 0x0 DUP1 RETURNDATACOPY RETURNDATASIZE PUSH1 0x0 REVERT JUMPDEST POP POP POP POP DUP1 PUSH1 0x1 PUSH1 0x0 CALLER PUSH20 0xFFFFFFFFFFFFFFFFFFFFFFFFFFFFFFFFFFFFFFFF AND PUSH20 0xFFFFFFFFFFFFFFFFFFFFFFFFFFFFFFFFFFFFFFFF AND DUP2 MSTORE PUSH1 0x20 ADD SWAP1 DUP2 MSTORE PUSH1 0x20 ADD PUSH1 0x0 KECCAK256 PUSH1 0x0 PUSH2 0x100 EXP DUP2 SLOAD DUP2 PUSH20 0xFFFFFFFFFFFFFFFFFFFFFFFFFFFFFFFFFFFFFFFF MUL NOT AND SWAP1 DUP4 PUSH20 0xFFFFFFFFFFFFFFFFFFFFFFFFFFFFFFFFFFFFFFFF AND MUL OR SWAP1 SSTORE POP PUSH1 0x0 DUP1 DUP2 SLOAD DUP1 SWAP3 SWAP2 SWAP1 PUSH2 0x322 SWAP1 PUSH2 0xB6A JUMP JUMPDEST SWAP2 SWAP1 POP SSTORE POP PUSH32 0x85858416F612212DDB7C6344D7B58182BAD1DE3BE71438A88C6F19F0FA2B826D CALLER PUSH1 0x1 PUSH1 0x0 SLOAD PUSH2 0x358 SWAP2 SWAP1 PUSH2 0xBB2 JUMP JUMPDEST DUP4 PUSH1 0x40 MLOAD PUSH2 0x368 SWAP4 SWAP3 SWAP2 SWAP1 PUSH2 0xC32 JUMP JUMPDEST PUSH1 0x40 MLOAD DUP1 SWAP2 SUB SWAP1 LOG1 POP JUMP JUMPDEST PUSH1 0x0 DUP2 PUSH1 0x0 PUSH20 0xFFFFFFFFFFFFFFFFFFFFFFFFFFFFFFFFFFFFFFFF AND PUSH1 0x1 PUSH1 0x0 DUP4 PUSH20 0xFFFFFFFFFFFFFFFFFFFFFFFFFFFFFFFFFFFFFFFF AND PUSH20 0xFFFFFFFFFFFFFFFFFFFFFFFFFFFFFFFFFFFFFFFF AND DUP2 MSTORE PUSH1 0x20 ADD SWAP1 DUP2 MSTORE PUSH1 0x20 ADD PUSH1 0x0 KECCAK256 PUSH1 0x0 SWAP1 SLOAD SWAP1 PUSH2 0x100 EXP SWAP1 DIV PUSH20 0xFFFFFFFFFFFFFFFFFFFFFFFFFFFFFFFFFFFFFFFF AND PUSH20 0xFFFFFFFFFFFFFFFFFFFFFFFFFFFFFFFFFFFFFFFF AND SUB PUSH2 0x444 JUMPI PUSH1 0x40 MLOAD PUSH32 0x8C379A000000000000000000000000000000000000000000000000000000000 DUP2 MSTORE PUSH1 0x4 ADD PUSH2 0x43B SWAP1 PUSH2 0xCEE JUMP JUMPDEST PUSH1 0x40 MLOAD DUP1 SWAP2 SUB SWAP1 REVERT JUMPDEST PUSH1 0x0 PUSH1 0x1 PUSH1 0x0 DUP6 PUSH20 0xFFFFFFFFFFFFFFFFFFFFFFFFFFFFFFFFFFFFFFFF AND PUSH20 0xFFFFFFFFFFFFFFFFFFFFFFFFFFFFFFFFFFFFFFFF AND DUP2 MSTORE PUSH1 0x20 ADD SWAP1 DUP2 MSTORE PUSH1 0x20 ADD PUSH1 0x0 KECCAK256 PUSH1 0x0 SWAP1 SLOAD SWAP1 PUSH2 0x100 EXP SWAP1 DIV PUSH20 0xFFFFFFFFFFFFFFFFFFFFFFFFFFFFFFFFFFFFFFFF AND SWAP1 POP DUP1 PUSH20 0xFFFFFFFFFFFFFFFFFFFFFFFFFFFFFFFFFFFFFFFF AND PUSH4 0xA8F2BE76 CALLER PUSH1 0x40 MLOAD DUP3 PUSH4 0xFFFFFFFF AND PUSH1 0xE0 SHL DUP2 MSTORE PUSH1 0x4 ADD PUSH2 0x4E1 SWAP2 SWAP1 PUSH2 0xB20 JUMP JUMPDEST PUSH1 0x20 PUSH1 0x40 MLOAD DUP1 DUP4 SUB DUP2 DUP7 GAS STATICCALL ISZERO DUP1 ISZERO PUSH2 0x4FE JUMPI RETURNDATASIZE PUSH1 0x0 DUP1 RETURNDATACOPY RETURNDATASIZE PUSH1 0x0 REVERT JUMPDEST POP POP POP POP PUSH1 0x40 MLOAD RETURNDATASIZE PUSH1 0x1F NOT PUSH1 0x1F DUP3 ADD AND DUP3 ADD DUP1 PUSH1 0x40 MSTORE POP DUP2 ADD SWAP1 PUSH2 0x522 SWAP2 SWAP1 PUSH2 0xD3A JUMP JUMPDEST SWAP3 POP POP POP SWAP2 SWAP1 POP JUMP JUMPDEST DUP1 PUSH20 0xFFFFFFFFFFFFFFFFFFFFFFFFFFFFFFFFFFFFFFFF AND CALLER PUSH20 0xFFFFFFFFFFFFFFFFFFFFFFFFFFFFFFFFFFFFFFFF AND SUB PUSH2 0x599 JUMPI PUSH1 0x40 MLOAD PUSH32 0x8C379A000000000000000000000000000000000000000000000000000000000 DUP2 MSTORE PUSH1 0x4 ADD PUSH2 0x590 SWAP1 PUSH2 0xDB3 JUMP JUMPDEST PUSH1 0x40 MLOAD DUP1 SWAP2 SUB SWAP1 REVERT JUMPDEST PUSH1 0x0 PUSH1 0x1 PUSH1 0x0 CALLER PUSH20 0xFFFFFFFFFFFFFFFFFFFFFFFFFFFFFFFFFFFFFFFF AND PUSH20 0xFFFFFFFFFFFFFFFFFFFFFFFFFFFFFFFFFFFFFFFF AND DUP2 MSTORE PUSH1 0x20 ADD SWAP1 DUP2 MSTORE PUSH1 0x20 ADD PUSH1 0x0 KECCAK256 PUSH1 0x0 SWAP1 SLOAD SWAP1 PUSH2 0x100 EXP SWAP1 DIV PUSH20 0xFFFFFFFFFFFFFFFFFFFFFFFFFFFFFFFFFFFFFFFF AND SWAP1 POP DUP1 PUSH20 0xFFFFFFFFFFFFFFFFFFFFFFFFFFFFFFFFFFFFFFFF AND PUSH4 0xAC0CC465 CALLER DUP5 PUSH1 0x40 MLOAD DUP4 PUSH4 0xFFFFFFFF AND PUSH1 0xE0 SHL DUP2 MSTORE PUSH1 0x4 ADD PUSH2 0x638 SWAP3 SWAP2 SWAP1 PUSH2 0xDD3 JUMP JUMPDEST PUSH1 0x0 PUSH1 0x40 MLOAD DUP1 DUP4 SUB DUP2 PUSH1 0x0 DUP8 DUP1 EXTCODESIZE ISZERO DUP1 ISZERO PUSH2 0x652 JUMPI PUSH1 0x0 DUP1 REVERT JUMPDEST POP GAS CALL ISZERO DUP1 ISZERO PUSH2 0x666 JUMPI RETURNDATASIZE PUSH1 0x0 DUP1 RETURNDATACOPY RETURNDATASIZE PUSH1 0x0 REVERT JUMPDEST POP POP POP POP PUSH32 0xCF135C3B898E1E68301EE3615D92CB56B00C3FC03DB5A8B44FEA7363B96E0DAE DUP3 PUSH1 0x40 MLOAD PUSH2 0x699 SWAP2 SWAP1 PUSH2 0xE48 JUMP JUMPDEST PUSH1 0x40 MLOAD DUP1 SWAP2 SUB SWAP1 LOG1 POP POP JUMP JUMPDEST PUSH1 0x0 DUP1 SLOAD SWAP1 POP SWAP1 JUMP JUMPDEST DUP1 PUSH20 0xFFFFFFFFFFFFFFFFFFFFFFFFFFFFFFFFFFFFFFFF AND CALLER PUSH20 0xFFFFFFFFFFFFFFFFFFFFFFFFFFFFFFFFFFFFFFFF AND SUB PUSH2 0x71C JUMPI PUSH1 0x40 MLOAD PUSH32 0x8C379A000000000000000000000000000000000000000000000000000000000 DUP2 MSTORE PUSH1 0x4 ADD PUSH2 0x713 SWAP1 PUSH2 0xEE8 JUMP JUMPDEST PUSH1 0x40 MLOAD DUP1 SWAP2 SUB SWAP1 REVERT JUMPDEST PUSH1 0x0 PUSH1 0x1 PUSH1 0x0 CALLER PUSH20 0xFFFFFFFFFFFFFFFFFFFFFFFFFFFFFFFFFFFFFFFF AND PUSH20 0xFFFFFFFFFFFFFFFFFFFFFFFFFFFFFFFFFFFFFFFF AND DUP2 MSTORE PUSH1 0x20 ADD SWAP1 DUP2 MSTORE PUSH1 0x20 ADD PUSH1 0x0 KECCAK256 PUSH1 0x0 SWAP1 SLOAD SWAP1 PUSH2 0x100 EXP SWAP1 DIV PUSH20 0xFFFFFFFFFFFFFFFFFFFFFFFFFFFFFFFFFFFFFFFF AND SWAP1 POP DUP1 PUSH20 0xFFFFFFFFFFFFFFFFFFFFFFFFFFFFFFFFFFFFFFFF AND PUSH4 0x4CC2F081 CALLER DUP5 PUSH1 0x40 MLOAD DUP4 PUSH4 0xFFFFFFFF AND PUSH1 0xE0 SHL DUP2 MSTORE PUSH1 0x4 ADD PUSH2 0x7BB SWAP3 SWAP2 SWAP1 PUSH2 0xDD3 JUMP JUMPDEST PUSH1 0x0 PUSH1 0x40 MLOAD DUP1 DUP4 SUB DUP2 PUSH1 0x0 DUP8 DUP1 EXTCODESIZE ISZERO DUP1 ISZERO PUSH2 0x7D5 JUMPI PUSH1 0x0 DUP1 REVERT JUMPDEST POP GAS CALL ISZERO DUP1 ISZERO PUSH2 0x7E9 JUMPI RETURNDATASIZE PUSH1 0x0 DUP1 RETURNDATACOPY RETURNDATASIZE PUSH1 0x0 REVERT JUMPDEST POP POP POP POP POP POP JUMP JUMPDEST PUSH1 0x0 PUSH23 0x3D602D80600A3D3981F3363D3D373D3D3D363D73000000 DUP3 PUSH1 0x60 SHL PUSH1 0xE8 SHR OR PUSH1 0x0 MSTORE PUSH15 0x5AF43D82803E903D91602B57FD5BF3 DUP3 PUSH1 0x78 SHL OR PUSH1 0x20 MSTORE PUSH1 0x37 PUSH1 0x9 PUSH1 0x0 CREATE SWAP1 POP PUSH1 0x0 PUSH20 0xFFFFFFFFFFFFFFFFFFFFFFFFFFFFFFFFFFFFFFFF AND DUP2 PUSH20 0xFFFFFFFFFFFFFFFFFFFFFFFFFFFFFFFFFFFFFFFF AND SUB PUSH2 0x8A6 JUMPI PUSH1 0x40 MLOAD PUSH32 0x8C379A000000000000000000000000000000000000000000000000000000000 DUP2 MSTORE PUSH1 0x4 ADD PUSH2 0x89D SWAP1 PUSH2 0xF54 JUMP JUMPDEST PUSH1 0x40 MLOAD DUP1 SWAP2 SUB SWAP1 REVERT JUMPDEST SWAP2 SWAP1 POP JUMP JUMPDEST PUSH1 0x0 DUP3 DUP3 MSTORE PUSH1 0x20 DUP3 ADD SWAP1 POP SWAP3 SWAP2 POP POP JUMP JUMPDEST PUSH32 0x66616C6C6261636B000000000000000000000000000000000000000000000000 PUSH1 0x0 DUP3 ADD MSTORE POP JUMP JUMPDEST PUSH1 0x0 PUSH2 0x8F2 PUSH1 0x8 DUP4 PUSH2 0x8AB JUMP JUMPDEST SWAP2 POP PUSH2 0x8FD DUP3 PUSH2 0x8BC JUMP JUMPDEST PUSH1 0x20 DUP3 ADD SWAP1 POP SWAP2 SWAP1 POP JUMP JUMPDEST PUSH1 0x0 PUSH20 0xFFFFFFFFFFFFFFFFFFFFFFFFFFFFFFFFFFFFFFFF DUP3 AND SWAP1 POP SWAP2 SWAP1 POP JUMP JUMPDEST PUSH1 0x0 PUSH2 0x933 DUP3 PUSH2 0x908 JUMP JUMPDEST SWAP1 POP SWAP2 SWAP1 POP JUMP JUMPDEST PUSH2 0x943 DUP2 PUSH2 0x928 JUMP JUMPDEST DUP3 MSTORE POP POP JUMP JUMPDEST PUSH1 0x0 DUP3 DUP3 MSTORE PUSH1 0x20 DUP3 ADD SWAP1 POP SWAP3 SWAP2 POP POP JUMP JUMPDEST DUP3 DUP2 DUP4 CALLDATACOPY PUSH1 0x0 DUP4 DUP4 ADD MSTORE POP POP POP JUMP JUMPDEST PUSH1 0x0 PUSH1 0x1F NOT PUSH1 0x1F DUP4 ADD AND SWAP1 POP SWAP2 SWAP1 POP JUMP JUMPDEST PUSH1 0x0 PUSH2 0x986 DUP4 DUP6 PUSH2 0x949 JUMP JUMPDEST SWAP4 POP PUSH2 0x993 DUP4 DUP6 DUP5 PUSH2 0x95A JUMP JUMPDEST PUSH2 0x99C DUP4 PUSH2 0x969 JUMP JUMPDEST DUP5 ADD SWAP1 POP SWAP4 SWAP3 POP POP POP JUMP JUMPDEST PUSH1 0x0 PUSH1 0x60 DUP3 ADD SWAP1 POP DUP2 DUP2 SUB PUSH1 0x0 DUP4 ADD MSTORE PUSH2 0x9C0 DUP2 PUSH2 0x8E5 JUMP JUMPDEST SWAP1 POP PUSH2 0x9CF PUSH1 0x20 DUP4 ADD DUP7 PUSH2 0x93A JUMP JUMPDEST DUP2 DUP2 SUB PUSH1 0x40 DUP4 ADD MSTORE PUSH2 0x9E2 DUP2 DUP5 DUP7 PUSH2 0x97A JUMP JUMPDEST SWAP1 POP SWAP5 SWAP4 POP POP POP POP JUMP JUMPDEST PUSH1 0x0 DUP1 REVERT JUMPDEST PUSH2 0x9FA DUP2 PUSH2 0x928 JUMP JUMPDEST DUP2 EQ PUSH2 0xA05 JUMPI PUSH1 0x0 DUP1 REVERT JUMPDEST POP JUMP JUMPDEST PUSH1 0x0 DUP2 CALLDATALOAD SWAP1 POP PUSH2 0xA17 DUP2 PUSH2 0x9F1 JUMP JUMPDEST SWAP3 SWAP2 POP POP JUMP JUMPDEST PUSH1 0x0 PUSH1 0x20 DUP3 DUP5 SUB SLT ISZERO PUSH2 0xA33 JUMPI PUSH2 0xA32 PUSH2 0x9EC JUMP JUMPDEST JUMPDEST PUSH1 0x0 PUSH2 0xA41 DUP5 DUP3 DUP6 ADD PUSH2 0xA08 JUMP JUMPDEST SWAP2 POP POP SWAP3 SWAP2 POP POP JUMP JUMPDEST PUSH1 0x0 DUP2 ISZERO ISZERO SWAP1 POP SWAP2 SWAP1 POP JUMP JUMPDEST PUSH2 0xA5F DUP2 PUSH2 0xA4A JUMP JUMPDEST DUP3 MSTORE POP POP JUMP JUMPDEST PUSH1 0x0 PUSH1 0x20 DUP3 ADD SWAP1 POP PUSH2 0xA7A PUSH1 0x0 DUP4 ADD DUP5 PUSH2 0xA56 JUMP JUMPDEST SWAP3 SWAP2 POP POP JUMP JUMPDEST PUSH1 0x0 DUP2 SWAP1 POP SWAP2 SWAP1 POP JUMP JUMPDEST PUSH2 0xA93 DUP2 PUSH2 0xA80 JUMP JUMPDEST DUP3 MSTORE POP POP JUMP JUMPDEST PUSH1 0x0 PUSH1 0x20 DUP3 ADD SWAP1 POP PUSH2 0xAAE PUSH1 0x0 DUP4 ADD DUP5 PUSH2 0xA8A JUMP JUMPDEST SWAP3 SWAP2 POP POP JUMP JUMPDEST PUSH32 0x596F752077657265207265676973746572210000000000000000000000000000 PUSH1 0x0 DUP3 ADD MSTORE POP JUMP JUMPDEST PUSH1 0x0 PUSH2 0xAEA PUSH1 0x12 DUP4 PUSH2 0x8AB JUMP JUMPDEST SWAP2 POP PUSH2 0xAF5 DUP3 PUSH2 0xAB4 JUMP JUMPDEST PUSH1 0x20 DUP3 ADD SWAP1 POP SWAP2 SWAP1 POP JUMP JUMPDEST PUSH1 0x0 PUSH1 0x20 DUP3 ADD SWAP1 POP DUP2 DUP2 SUB PUSH1 0x0 DUP4 ADD MSTORE PUSH2 0xB19 DUP2 PUSH2 0xADD JUMP JUMPDEST SWAP1 POP SWAP2 SWAP1 POP JUMP JUMPDEST PUSH1 0x0 PUSH1 0x20 DUP3 ADD SWAP1 POP PUSH2 0xB35 PUSH1 0x0 DUP4 ADD DUP5 PUSH2 0x93A JUMP JUMPDEST SWAP3 SWAP2 POP POP JUMP JUMPDEST PUSH32 0x4E487B7100000000000000000000000000000000000000000000000000000000 PUSH1 0x0 MSTORE PUSH1 0x11 PUSH1 0x4 MSTORE PUSH1 0x24 PUSH1 0x0 REVERT JUMPDEST PUSH1 0x0 PUSH2 0xB75 DUP3 PUSH2 0xA80 JUMP JUMPDEST SWAP2 POP PUSH32 0xFFFFFFFFFFFFFFFFFFFFFFFFFFFFFFFFFFFFFFFFFFFFFFFFFFFFFFFFFFFFFFFF DUP3 SUB PUSH2 0xBA7 JUMPI PUSH2 0xBA6 PUSH2 0xB3B JUMP JUMPDEST JUMPDEST PUSH1 0x1 DUP3 ADD SWAP1 POP SWAP2 SWAP1 POP JUMP JUMPDEST PUSH1 0x0 PUSH2 0xBBD DUP3 PUSH2 0xA80 JUMP JUMPDEST SWAP2 POP PUSH2 0xBC8 DUP4 PUSH2 0xA80 JUMP JUMPDEST SWAP3 POP DUP3 DUP3 SUB SWAP1 POP DUP2 DUP2 GT ISZERO PUSH2 0xBE0 JUMPI PUSH2 0xBDF PUSH2 0xB3B JUMP JUMPDEST JUMPDEST SWAP3 SWAP2 POP POP JUMP JUMPDEST PUSH32 0x4372656174652070617469656E743A2000000000000000000000000000000000 PUSH1 0x0 DUP3 ADD MSTORE POP JUMP JUMPDEST PUSH1 0x0 PUSH2 0xC1C PUSH1 0x10 DUP4 PUSH2 0x8AB JUMP JUMPDEST SWAP2 POP PUSH2 0xC27 DUP3 PUSH2 0xBE6 JUMP JUMPDEST PUSH1 0x20 DUP3 ADD SWAP1 POP SWAP2 SWAP1 POP JUMP JUMPDEST PUSH1 0x0 PUSH1 0x80 DUP3 ADD SWAP1 POP DUP2 DUP2 SUB PUSH1 0x0 DUP4 ADD MSTORE PUSH2 0xC4B DUP2 PUSH2 0xC0F JUMP JUMPDEST SWAP1 POP PUSH2 0xC5A PUSH1 0x20 DUP4 ADD DUP7 PUSH2 0x93A JUMP JUMPDEST PUSH2 0xC67 PUSH1 0x40 DUP4 ADD DUP6 PUSH2 0xA8A JUMP JUMPDEST PUSH2 0xC74 PUSH1 0x60 DUP4 ADD DUP5 PUSH2 0x93A JUMP JUMPDEST SWAP5 SWAP4 POP POP POP POP JUMP JUMPDEST PUSH32 0x50617469656E7420646F6E27742065786973747321436865636B207061746965 PUSH1 0x0 DUP3 ADD MSTORE PUSH32 0x6E742773206163636F756E742100000000000000000000000000000000000000 PUSH1 0x20 DUP3 ADD MSTORE POP JUMP JUMPDEST PUSH1 0x0 PUSH2 0xCD8 PUSH1 0x2D DUP4 PUSH2 0x8AB JUMP JUMPDEST SWAP2 POP PUSH2 0xCE3 DUP3 PUSH2 0xC7C JUMP JUMPDEST PUSH1 0x40 DUP3 ADD SWAP1 POP SWAP2 SWAP1 POP JUMP JUMPDEST PUSH1 0x0 PUSH1 0x20 DUP3 ADD SWAP1 POP DUP2 DUP2 SUB PUSH1 0x0 DUP4 ADD MSTORE PUSH2 0xD07 DUP2 PUSH2 0xCCB JUMP JUMPDEST SWAP1 POP SWAP2 SWAP1 POP JUMP JUMPDEST PUSH2 0xD17 DUP2 PUSH2 0xA4A JUMP JUMPDEST DUP2 EQ PUSH2 0xD22 JUMPI PUSH1 0x0 DUP1 REVERT JUMPDEST POP JUMP JUMPDEST PUSH1 0x0 DUP2 MLOAD SWAP1 POP PUSH2 0xD34 DUP2 PUSH2 0xD0E JUMP JUMPDEST SWAP3 SWAP2 POP POP JUMP JUMPDEST PUSH1 0x0 PUSH1 0x20 DUP3 DUP5 SUB SLT ISZERO PUSH2 0xD50 JUMPI PUSH2 0xD4F PUSH2 0x9EC JUMP JUMPDEST JUMPDEST PUSH1 0x0 PUSH2 0xD5E DUP5 DUP3 DUP6 ADD PUSH2 0xD25 JUMP JUMPDEST SWAP2 POP POP SWAP3 SWAP2 POP POP JUMP JUMPDEST PUSH32 0x596F752063616E206E6F74206265206120646F63746F72210000000000000000 PUSH1 0x0 DUP3 ADD MSTORE POP JUMP JUMPDEST PUSH1 0x0 PUSH2 0xD9D PUSH1 0x18 DUP4 PUSH2 0x8AB JUMP JUMPDEST SWAP2 POP PUSH2 0xDA8 DUP3 PUSH2 0xD67 JUMP JUMPDEST PUSH1 0x20 DUP3 ADD SWAP1 POP SWAP2 SWAP1 POP JUMP JUMPDEST PUSH1 0x0 PUSH1 0x20 DUP3 ADD SWAP1 POP DUP2 DUP2 SUB PUSH1 0x0 DUP4 ADD MSTORE PUSH2 0xDCC DUP2 PUSH2 0xD90 JUMP JUMPDEST SWAP1 POP SWAP2 SWAP1 POP JUMP JUMPDEST PUSH1 0x0 PUSH1 0x40 DUP3 ADD SWAP1 POP PUSH2 0xDE8 PUSH1 0x0 DUP4 ADD DUP6 PUSH2 0x93A JUMP JUMPDEST PUSH2 0xDF5 PUSH1 0x20 DUP4 ADD DUP5 PUSH2 0x93A JUMP JUMPDEST SWAP4 SWAP3 POP POP POP JUMP JUMPDEST PUSH32 0x446F63746F720000000000000000000000000000000000000000000000000000 PUSH1 0x0 DUP3 ADD MSTORE POP JUMP JUMPDEST PUSH1 0x0 PUSH2 0xE32 PUSH1 0x6 DUP4 PUSH2 0x8AB JUMP JUMPDEST SWAP2 POP PUSH2 0xE3D DUP3 PUSH2 0xDFC JUMP JUMPDEST PUSH1 0x20 DUP3 ADD SWAP1 POP SWAP2 SWAP1 POP JUMP JUMPDEST PUSH1 0x0 PUSH1 0x40 DUP3 ADD SWAP1 POP DUP2 DUP2 SUB PUSH1 0x0 DUP4 ADD MSTORE PUSH2 0xE61 DUP2 PUSH2 0xE25 JUMP JUMPDEST SWAP1 POP PUSH2 0xE70 PUSH1 0x20 DUP4 ADD DUP5 PUSH2 0x93A JUMP JUMPDEST SWAP3 SWAP2 POP POP JUMP JUMPDEST PUSH32 0x596F752063616E206E6F74206265206120646F63746F7220616E64206E6F7468 PUSH1 0x0 DUP3 ADD MSTORE PUSH32 0x696E6720616E75616C2100000000000000000000000000000000000000000000 PUSH1 0x20 DUP3 ADD MSTORE POP JUMP JUMPDEST PUSH1 0x0 PUSH2 0xED2 PUSH1 0x2A DUP4 PUSH2 0x8AB JUMP JUMPDEST SWAP2 POP PUSH2 0xEDD DUP3 PUSH2 0xE76 JUMP JUMPDEST PUSH1 0x40 DUP3 ADD SWAP1 POP SWAP2 SWAP1 POP JUMP JUMPDEST PUSH1 0x0 PUSH1 0x20 DUP3 ADD SWAP1 POP DUP2 DUP2 SUB PUSH1 0x0 DUP4 ADD MSTORE PUSH2 0xF01 DUP2 PUSH2 0xEC5 JUMP JUMPDEST SWAP1 POP SWAP2 SWAP1 POP JUMP JUMPDEST PUSH32 0x455243313136373A20637265617465206661696C656400000000000000000000 PUSH1 0x0 DUP3 ADD MSTORE POP JUMP JUMPDEST PUSH1 0x0 PUSH2 0xF3E PUSH1 0x16 DUP4 PUSH2 0x8AB JUMP JUMPDEST SWAP2 POP PUSH2 0xF49 DUP3 PUSH2 0xF08 JUMP JUMPDEST PUSH1 0x20 DUP3 ADD SWAP1 POP SWAP2 SWAP1 POP JUMP JUMPDEST PUSH1 0x0 PUSH1 0x20 DUP3 ADD SWAP1 POP DUP2 DUP2 SUB PUSH1 0x0 DUP4 ADD MSTORE PUSH2 0xF6D DUP2 PUSH2 0xF31 JUMP JUMPDEST SWAP1 POP SWAP2 SWAP1 POP JUMP INVALID LOG2 PUSH5 0x6970667358 0x22 SLT KECCAK256 ISZERO 0xBF PUSH1 0x52 DUP7 0xAC 0xCF 0xEB JUMP PUSH11 0x2AD52E5DCEBD25AE1C57B2 0xDA 0xC1 0x29 TIMESTAMP PUSH14 0x21255F535B7664736F6C63430008 SLT STOP CALLER "
		},
		"gasEstimates": {
			"creation": {
				"codeDepositCost": "802000",
				"executionCost": "infinite",
				"totalCost": "infinite"
			},
			"external": {
				"": "infinite",
				"anualRole(address)": "infinite",
				"checkAccess(address)": "infinite",
				"createPatient()": "infinite",
				"getCountPatient()": "2481",
				"giveRole(address)": "infinite"
			}
		},
		"methodIdentifiers": {
			"anualRole(address)": "f531072c",
			"checkAccess(address)": "466a0146",
			"createPatient()": "35a27178",
			"getCountPatient()": "cd8cb137",
			"giveRole(address)": "c375110d"
		}
	},
	"abi": [
		{
			"inputs": [
				{
					"internalType": "address",
					"name": "_implementation",
					"type": "address"
				}
			],
			"stateMutability": "nonpayable",
			"type": "constructor"
		},
		{
			"anonymous": false,
			"inputs": [
				{
					"indexed": false,
					"internalType": "string",
					"name": "role",
					"type": "string"
				},
				{
					"indexed": false,
					"internalType": "address",
					"name": "doctor",
					"type": "address"
				}
			],
			"name": "GetRole",
			"type": "event"
		},
		{
			"anonymous": false,
			"inputs": [
				{
					"indexed": false,
					"internalType": "string",
					"name": "func",
					"type": "string"
				},
				{
					"indexed": false,
					"internalType": "address",
					"name": "sender",
					"type": "address"
				},
				{
					"indexed": false,
					"internalType": "bytes",
					"name": "data",
					"type": "bytes"
				}
			],
			"name": "Log",
			"type": "event"
		},
		{
			"anonymous": false,
			"inputs": [
				{
					"indexed": false,
					"internalType": "string",
					"name": "notice",
					"type": "string"
				},
				{
					"indexed": false,
					"internalType": "address",
					"name": "patient",
					"type": "address"
				},
				{
					"indexed": false,
					"internalType": "uint256",
					"name": "number",
					"type": "uint256"
				},
				{
					"indexed": false,
					"internalType": "address",
					"name": "contractPatient",
					"type": "address"
				}
			],
			"name": "NewPatient",
			"type": "event"
		},
		{
			"stateMutability": "nonpayable",
			"type": "fallback"
		},
		{
			"inputs": [
				{
					"internalType": "address",
					"name": "_doctor",
					"type": "address"
				}
			],
			"name": "anualRole",
			"outputs": [],
			"stateMutability": "nonpayable",
			"type": "function"
		},
		{
			"inputs": [
				{
					"internalType": "address",
					"name": "_patient",
					"type": "address"
				}
			],
			"name": "checkAccess",
			"outputs": [
				{
					"internalType": "bool",
					"name": "",
					"type": "bool"
				}
			],
			"stateMutability": "view",
			"type": "function"
		},
		{
			"inputs": [],
			"name": "createPatient",
			"outputs": [],
			"stateMutability": "nonpayable",
			"type": "function"
		},
		{
			"inputs": [],
			"name": "getCountPatient",
			"outputs": [
				{
					"internalType": "uint256",
					"name": "",
					"type": "uint256"
				}
			],
			"stateMutability": "view",
			"type": "function"
		},
		{
			"inputs": [
				{
					"internalType": "address",
					"name": "_doctor",
					"type": "address"
				}
			],
			"name": "giveRole",
			"outputs": [],
			"stateMutability": "nonpayable",
			"type": "function"
		}
	]
}